:020000041FFFDC
:1000000000000020C100FF1F8D17FF1FEB34FF1FF2
:1000100000000000000000000000000000000000E0
:100020000000000000000000000000008D17FF1F0E
:1000300000000000000000008D17FF1F8D17FF1F3C
:100040008D17FF1F8D17FF1F8D17FF1F8D17FF1FA8
:100050008D17FF1F8D17FF1F8D17FF1F8D17FF1F98
:100060008D17FF1F8D17FF1F8D17FF1F8D17FF1F88
:100070008D17FF1F8D17FF1F8D17FF1F8D17FF1F78
:100080008D17FF1F8D17FF1F8D17FF1F8D17FF1F68
:100090008D17FF1F8D17FF1F8D17FF1F8D17FF1F58
:1000A0008D17FF1F8D17FF1F8D17FF1F8D17FF1F48
:1000B0008D17FF1F8D17FF1F8D17FF1F8D17FF1F38
:1000C00001F067FB084809490022814201D004C0C1
:1000D000FBE707480749084A814202D008CA08C01E
:1000E000FAE701F03FFB00DE00F0FF1F00F0FF1F0A
:1000F00000F0FF1F00F0FF1F8841FF1FD0B502AFC7
:10010000FFB099B0F649802048601E900860012039
:1001100012904007FA4901602DAE34462C34002578
:1001200025760A200890207502200D9020733573E3
:10013000032009903080FF20269002303C9030460A
:10014000543012210B9102F05EFF304667300B21D4
:1001500025900A9102F0FBFE334664331298D88151
:100160009D702A4600044A904BA8083010904BA876
:10017000443002904BA8443005904BA8443007907F
:100180004BA844300190603606964BA8443004904A
:100190004BA8443003904BA844300E9005200C909F
:1001A00000021F942146044618310F91EE4805685D
:1001B0001646104611922C9224932994EA49096814
:1001C000A9422A911AD1D948006D2040411E044607
:1001D0008C41002828954BD0002E7DD006432999CC
:1001E00027968E422C9900D112992B911299259E17
:1001F00000D12C99C90775D000F09FFD491BF24A28
:10020000914200D3F049172844D188B219880818C0
:10021000ED49884200D3EC481880B3282A9DD2D9F2
:1002200083A92B911F2008700120849087AC2DA9F1
:10023000279144222892204603F01CF94BAD284612
:1002400021462B9A01F0CCFC27982946289A03F0E6
:1002500011F90F980E993CC93CC00F9800781728E7
:1002600000D0FDE03F98012800D0F9E01820F8E028
:10027000714271412B91002E129900D02C99C9071F
:100280003FD02B982C9908402B9000202790259E3A
:1002900000F053FD9A78012A2A9D94D11F9A127B6F
:1002A000022A2A9D8FD21A2805D801228240F348BB
:1002B00002422A9D87D14298401801D30020C043B2
:1002C0004290EF4988422A9D00D27CE72DA801F098
:1002D00063FA249B2A9D76E7299988422A991191ED
:1002E000259E37D111992A9A511A299D2A46DB3227
:1002F000914229D932781A2A43D129982790289DEA
:1003000005E025990A781A2A2BD10020279013207E
:100310002C90D8701879401C1871D97C491CFF2981
:1003200000D3FF212091D974002142911F99097BAC
:10033000219199782291C2B22B94259E299C00F09C
:1003400045FD4B9001F012F900202B902795289D38
:1003500000F0F3FC00212B912A991191279000F0D5
:10036000ECFC00212791429101218B029E420B4619
:1003700000D00D9B09028E42279900D01946259E78
:1003800016E01946002342938D780321012D0CD1EC
:100390001F9D2D7B012D08D81A2A7ED80125954056
:1003A0004D2636053542259E77D0299B2793289DDB
:1003B000920002A39A582B94249B97460B06FF1F8A
:1003C000A305FF1FD905FF1F4D05FF1F3506FF1FA2
:1003D0009106FF1FE505FF1FE906FF1F7305FF1FBD
:1003E000BF06FF1F2105FF1F5305FF1F6706FF1FE5
:1003F000F704FF1FB305FF1FCB04FF1F8104FF1F7E
:100400008104FF1F4907FF1F2D04FF1F0907FF1F5E
:100410002D04FF1F2907FF1F3B0DFF1F7304FF1F44
:100420007304FF1FE116FF1FB104FF1F022901D053
:1004300000F082FC0020D8801421D9701979491C61
:1004400019714590D87C2090987822901F98007B55
:1004500021901A7914202C902B94299C00F0EAFC0E
:100460001B20249BD8701879401C18712A9D299C48
:10047000A9E6002800D17BE112982B9000F05DFCEA
:10048000C80701D000F058FC1879401C1871987802
:10049000002800D07FE101217EE1249843740346C7
:1004A000122A00D07BE112982B90299827904EE7D2
:1004B000022901D000F040FC1879401C187199788D
:1004C000002900D168E1132166E12B944900C04660
:1004D0007944898849008F4405007B0188013004F4
:1004E000008000401879401C1871D87B002800D18A
:1004F0002AE3401E29E3880002A108582B9487466E
:10050000325948501505FF1F1D08FF1F3108FF1FF6
:100510003B0DFF1F587B002800D118E3401E82E3EB
:10052000880003A108582B948746C04600800040ED
:100530004105FF1F3D08FF1F5108FF1F3B0DFF1F17
:10054000D87A002800D104E3401E03E32DA8129AB4
:1005500044E02B944900C0467944898849008F447F
:100560000500EC038201EC03180200200A21D97077
:10057000ACE0022900D0DFE30720D8700020987299
:100580001879401C1871D87C2090987822901F9878
:10059000007B21901A7907202C902B94299C00F045
:1005A000C0FC022900D30DE1587901214140597165
:1005B000BFE32B944900C0467944898849008F44A1
:1005C0000500D501E501BC03FFFF0000987B002872
:1005D00000D1C9E2401E21E32DA8002201F04AF912
:1005E000249BA9E32B9449007944898849008F44CE
:1005F0000300C301D301A4031879401C1871187AB1
:10060000411E02468A41801ABEE1022900D093E3CE
:1006100001202C90D8701879401C18711F99097B03
:10062000219199782291D97C2091C2B22B94299C56
:1006300000F090FC022900D07EE30020D880022147
:10064000D9701979491C197144904390D87C209035
:10065000987822901F98007B21901A7902202C9084
:100660002B9400F06CFC2B944900C0467944898897
:1006700049008F4407009B01B1016203EF000004B1
:1006800030750000187B002800D171E2401E70E236
:10069000022900D050E306202C90D8700020187258
:1006A0001879401C18711F99097B21919978229122
:1006B000D97C2091C2B22B94299C00F066FC0229BF
:1006C00000D039E30A21D9700020D8721879401C73
:1006D00018712C91D87C2090987822901F98007BDC
:1006E00021901A792B94CFE32B944900794489887F
:1006F00049008F440300610180012203987A002899
:1007000000D138E2401E37E22B94490079448988B1
:1007100049008F4403005701A1011203D879002832
:1007200000D12BE2401E2AE22B94490079448988AB
:1007300049008F440300B901CC010203187C002852
:1007400000D123E2401E22E22B944900794489889B
:1007500049008F440300B301EC01F2021879401CF8
:100760001871597C0029099800D1AEE1481EACE10E
:100770000A9ADA701879401C18711F99097B219127
:1007800099782291D97C2091C1B200202B902C9293
:100790000A46299C89E30A21D9702B94CEE21220C3
:1007A0002C90D8701879401C18711F99097B2191E1
:1007B00099782291D97C2091C2B2299C27941298D1
:1007C0002B908BE300D0B7E25879002814D134E79E
:1007D0001879401C1871D87B401CC1B2AB224A4327
:1007E000510A03224A43801AAFE1D87B002800D186
:1007F000A6E1012800D0CCE11120D8701879401C66
:100800001871D87C2090987822901F98007B2190B6
:100810001A7911202C902B94299CBFE3587B401C03
:10082000C1B2AB224A43510A03224A43801AFAE179
:10083000587B022800D1ADE0112079E2D87A401C23
:10084000C1B2AB224A43510A03224A43801A81E1D2
:10085000D87A002800D19FE1012800D09EE10C2029
:10086000D870002085E1229483A92C911A20087069
:10087000012085902190849087AE2DA92391442258
:100880002B92304602F0F6FD4BAD284631462C9AAD
:1008900001F0A6F9239829462B9A02F0EBFD0F9858
:1008A0002C9007992C9C6CC96CC4EB4901F03CF866
:1008B000002800D150E183AE0220B072219931812D
:1008C0000320B0801B202C903070869187A8209048
:1008D0002DA9239144222B9202F0CCFD4BAD28464A
:1008E0002099324601F07CF9239829462B9A02F090
:1008F000C1FD0F9805996CC96CC0F8490F9801F0BB
:1009000013F8002800D17BE183A92B911C200870EB
:100910002198849087A820902DAE442223923146BE
:10092000219602F0A7FD4BAD284620992B9A01F0A5
:1009300057F930462946239A02F09CFD0F980299F8
:100940006CC96CC02198007B0128229C00D0CEE1AC
:10095000E3490F9800F0E8FF0028259E249B2C997E
:1009600000D151E10020187416214DE1987B401C04
:10097000032101409973DCE11879401C1871187A41
:10098000401C172800D317201872D5E1987B032844
:1009900000D0E5E00C20CBE1187A172800D0CBE19D
:1009A0000020987258720720D870E9E5187B401C27
:1009B000032101401973BCE1987A401C03210140D6
:1009C0009972B6E1D879401CC1B2CD224A43D10A0E
:1009D000089A5143401AD2E0187B002800D11FE149
:1009E000012800D117E1022800D01EE10F20D870A5
:1009F0000020D8739DE1987A022800D0B6E0587A9A
:100A0000002800D164E12DA800210173C1800A22D1
:100A10001F9E327503223273317001219970FF21BC
:100A200002313161E8492D9101F034F8249BD978E5
:100A3000307B022800D355E10929259E00D076E1BC
:100A40002C91D87C2090987822901F98007B219040
:100A50001A792B94299CF2E29879042801D300F0AA
:100A600041FED979069A11540025DD719879401C10
:100A70009871C0B2042800D282E09D7143984599D4
:100A8000814200D014E12DA801F004F81F98007BEA
:100A9000022800D335E1249BDD72D9780A2900D1E0
:100AA00017E6089800F017FE187C401CC1B2CD2252
:100AB0004A43910A0C9A5143401A68E01879401C45
:100AC0001871587C401C09990840587434E1187C0E
:100AD000032865D0042800D02EE183A92C911E2084
:100AE00008700120849087AE2DA9239144222B9277
:100AF000304602F0BFFC4BAD284631462C9A01F03F
:100B00006FF8239829462B9A02F0B4FC0F980399AA
:100B10006CC96CC01F98007E18286BD13F980128C3
:100B200068D11F98407E0A2864D1192063E0587C60
:100B3000002800D192E0012879D0022800D0B5E049
:100B40002DA800F029FE4BE50220D873F4E0022026
:100B500069E00220D872ECE01B21259E249B52E024
:100B60000C21D9709874E4E0032057E00820DFE0FE
:100B700003201873DDE003209872DAE00920D871B1
:100B80001879401C18712B94FFF7E1FB04201874AE
:100B9000CFE00C20D8704EE00B20C9E01020C7E059
:100BA00083A92C911D2008700120849087AE2DA967
:100BB000239144222B92304602F05CFC4BAD284638
:100BC00031462C9A01F00CF8239829462B9A02F012
:100BD00051FC0F9804996CC96CC09F490F9800F0A4
:100BE000A3FE002806D01720249BD8700020188070
:100BF000259E03E01B20259E3070249B289D98E0B5
:100C0000259E249B2C99229CD9701879401C187120
:100C10002B94289D92E00E20D870987C987388E0E1
:100C20000D20D8700020587383E00A2080E00C204B
:100C3000D870002018731879401C1871D87C209047
:100C4000987822901F98007B21901A790C202C9084
:100C50002B94299CB8E1C046D435FF1F1F98007B18
:100C600001281FD883A92C911320087087AE2DA9C5
:100C7000239144222B92304602F0FCFB4BAD2846D8
:100C800031462C9A00F0ACFF239829462B9A02F0AB
:100C9000F1FB0F9801996CC96CC0249B259E289D7F
:100CA0001F98007B032826D01B2125E008995EE4CD
:100CB0003078152838D12C90D87C209098782290C4
:100CC0001F98007B21901A792B94299C289D9FE1E5
:100CD00000209872012058722BE0C0467436FF1F26
:100CE0005436FF1F1B29259E12D01B2020E0259E75
:100CF000249B2C9988E71321D9701879401C18710E
:100D00004BE531781B29249B289D01D000F0E2FCA3
:100D10002C91D87C2090987822901F98007B21906D
:100D20001A792B94299C5DE1152000F0D4FC092050
:100D300030701879401C18712B943178D87C209031
:100D4000987822901F98007B21901A79299C2C91E9
:100D5000880001A108588746FB0DFF1F550FFF1F94
:100D60003F0FFF1FB110FF1FA511FF1FD311FF1F62
:100D70008B0FFF1F230FFF1FD310FF1F3F10FF1FFD
:100D8000890EFF1FAB0EFF1FC90FFF1F9310FF1F20
:100D90005911FF1F6D10FF1F7711FF1F9D0FFF1FC0
:100DA000DD0EFF1FCD0DFF1F350EFF1F1110FF1FA2
:100DB0000112FF1F3512FF1F2B11FF1FFF10FF1F16
:100DC0006912FF1FE50FFF1F0500FFFF002056906F
:100DD0000121559154905391102052901F485190E9
:100DE0000C2050901E484F9013204E901D484D905F
:100DF0000D204C901C48FFF7A4FA012056901B4987
:100E0000559154901A48539013205290194951917A
:100E100014215091254634461646174A4F923246C1
:100E200026462C46289D4E9014484D904C911448CF
:100E3000FFF787FA249883792498C07900904BA80B
:100E400025463446164609220E4900F0D9FC3246A2
:100E500026462C46289D3AE14436FF1FE435FF1F05
:100E6000453FFF1F323FFF1F253FFF1F1F35FF1F5D
:100E70001E35FF1FAF3BFF1F9B3BFF1F883BFF1F24
:100E8000743BFF1F513FFF1F09204C90F5484B90CA
:100E9000D87A0128239200D11CE3002800D01EE359
:100EA0000720FD49FD4B0B9A1DE3002056900120C1
:100EB000559004205490FD48539017205290FC48C0
:100EC000519015205090FB484F9009204E90FA48C1
:100ED0004D9007204C90F448FFF733FA23920E20F0
:100EE0004C90F6484B905A7C022AF5480C9906D84B
:100EF0009000F44908580221C94351430B310122A3
:100F00005692F14D55955492F04A53920C225292BA
:100F1000EF4A519214225092EE4A4F924E914D90C8
:100F200022E3587A0028EC4900D0EC492392987AC1
:100F300000D19DE20428EA4A00D29DE2D2E324983F
:100F400083792498C07900904BA8344616460A222B
:100F5000E449B7E00E204C90E3484B9058790028C4
:100F600000D1A3E201205690D74955915490D7481B
:100F700053900C205290D648519014205090DB484A
:100F80004F9013204E90DA48A2E2187A1628239246
:100F900000D92DE28100D74A51582EE20020569008
:100FA00001215591549053910B205290D249519167
:100FB00018215091D1494F9116214E91D0494D9110
:100FC0004C90D048FFF7BDF9239208204C90CE48B2
:100FD0004B90187B022800D929E28100CB48405869
:100FE000CB4AC6E000205690012155915490539170
:100FF00011205290C748519014205090C6494F91EB
:101000004E90C6484D900B204C90C548FFF799F97B
:1010100000205690012155915490539110205290E8
:10102000C048519014205090BF484F900D204E90D2
:10103000BE484D9009204C90BD48FFF782F9002032
:101040005690012155915490539115205290B948D2
:10105000519012205090B8484F9017204E90B748AA
:101060004D900F204C90B648FFF76BF92392052066
:101070004C90B4484B90DA7B012A00D143E20C201B
:101080001D901421002A00D059E2AF4C0922AF4B29
:1010900058E208204C90AE484B90587B0128239290
:1010A00000D138E2002800D0FAE00A20A94934E251
:1010B000249883792498C07900904BA8A649344697
:1010C00016460B2200F09CFB32462646299C249BA8
:1010D0004CE20020569001215591549053911020DC
:1010E000529090485190162050909C484F90132059
:1010F0004E909B494D914C909A48FFF722F9002061
:101100005690012155915490539116205290964932
:101110005191509095484F9012204E9094484D9088
:1011200010204C909348FFF70CF9002056900121B5
:10113000559154905391162052908B4851901720FE
:1011400050908D484F9010204E908C484D900F201D
:101150004C908B48FFF7F5F8239207204C90894874
:101160004B90987B022800D99AE08100864840582D
:10117000864A5158D1E10020569001215591549052
:1011800053910B2052905C4851901520509080480C
:101190004F9012204E907F484D900C204C907E48EE
:1011A000FFF7CFF8002056900121559154905391AC
:1011B000102052905B4851901120509077484F90EA
:1011C00016204E9076484D900C204C907548FFF7B5
:1011D000B8F8002056900121559154905391112058
:1011E0005290714851901720509070484F901420A1
:1011F0004E906F484D900F204C906E48FFF7A1F82D
:101200002392187C032800D914E180006A49095808
:101210001D916A4909581C91694A11581B91694BE3
:101220001B58694C2458694D2D58694E36586949E8
:1012300008580AE1042056906749559154905391FB
:1012400015205290654851901820509064484F9056
:1012500011204E9063484D9008204C906248FFF753
:1012600070F8C0460238FF1F0020569001215591AA
:1012700054905391254634461646162252925B4AA4
:101280005192324626462C46289D50904F914E90C2
:101290004D914C904B9169E10B38FF1F1238FF1FA5
:1012A0000420024939E1C0460B38FF1F5435FF1FA7
:1012B000973EFF1F823EFF1F793EFF1F5D37FF1FD6
:1012C0007B37FF1F0C41FF1F1F35FF1F1E35FF1F00
:1012D0001235FF1F443BFF1FBD3DFF1FCC3DFF1FCD
:1012E000243BFF1F223CFF1FC23BFF1F0E3CFF1F82
:1012F000FB3BFF1F8040FF1FE13EFF1F0D3FFF1F15
:10130000F73EFF1FEC3EFF1FBB35FF1FE840FF1FEE
:10131000DC40FF1F6F40FF1F5B40FF1F4740FF1F68
:101320003C40FF1F9436FF1F703FFF1F633FFF1FAE
:101330005A3FFF1F643EFF1F523EFF1F3B3EFF1FF1
:101340002C3EFF1FF034FF1FFE34FF1FF534FF1F3C
:10135000B335FF1FDD37FF1F2C3CFF1F163EFF1F5D
:10136000033EFF1FF03DFF1FE83FFF1F1040FF1F20
:10137000FE3FFF1F3436FF1FD13FFF1FF435FF1F15
:10138000C23FFF1F8037FF1F0041FF1FF440FF1FB8
:10139000CC3EFF1FBA3EFF1FAE3EFF1F593CFF1F52
:1013A000433CFF1F373CFF1FA43CFF1F8D3CFF1F2A
:1013B000793CFF1F6A3CFF1FB436FF1F4841FF1FE7
:1013C000A436FF1F3841FF1F0436FF1F2841FF1FAF
:1013D0008436FF1F1841FF1F5C35FF1FAD3FFF1F05
:1013E000953FFF1F843FFF1FC335FF1F2640FF1F90
:1013F000172800D079E11720D34901225692C24D17
:1014000055955492C14A539216225292CF4A519204
:1014100013225092CE4A4F9215224C924B91C0000B
:10142000CC4A11584D91101840684E909CE0112004
:10143000BF4972E012201D90AF481C9018201B90ED
:10144000AE4B1324AE4D0626AE4801215691AE4A4E
:1014500055925491AD4953911D9952911C995191B6
:101460001B9950914F934E944D954C964B9078E02C
:101470000428B34A00D335E101235693A24D559574
:101480005493A24B53930C235293A14B5193152386
:101490005093AC4B4F930F234C934B91C00011587A
:1014A0004D91101840684E90249B5DE001205690AD
:1014B000954955915490954853900C2052909448DA
:1014C000519017205090A4484F9014204E90A3485C
:1014D0004D904BE01C2208209449984B03E01822C1
:1014E00005209549934B01245694874D5595549466
:1014F000864C53940C245294854C519450924F93A3
:101500004E904D912EE00E201D90844D1121844C63
:101510001522844B17E00A208349012256927A4D06
:1015200055955492794A53920C225292784A51928C
:1015300014225092774A4F924E904D9114E004221B
:10154000754B744C724D012656966F4855905496C3
:101550006E4853901D985290519550914F944E92D1
:101560004D93259E249B299C289D239A2698824250
:1015700002D102462C9889E05698269055981D90E5
:1015800054981C9053981B9052981A905198199007
:10159000509818904F9817904E9816904D98159017
:1015A0004C9814904B981390D8211098144601F041
:1015B0002AFD4BAD2394EC712C98687102222A719C
:1015C00000202199022900D302462C9917394B4259
:1015D0004B412C99162901D0219001E0042421943B
:1015E00008261A39344600D10C46D118219A8A1897
:1015F00022432C991A2900D11020299C02432298B9
:1016000040011043A87156484B9028463146139A22
:10161000149B00F0BFFA01462846159A169B00F06D
:10162000B9FA01462846179A189B00F0B3FA01460A
:101630002846199A1A9B00F0ADFA014628461B9AD3
:101640001C9B00F0A7FA014628461D9A269B00F035
:10165000A1FADF2805D84BA9209A0A54401C259EE0
:1016600003E0E028259E39D1E0200021214D6A18B1
:101670004BAB5B5C1372491C8842F8D168602868E8
:10168000401C28603078249B289D239A1A2811D06A
:1016900017281E980FD150212A9825463446164601
:1016A00001F000FD324626462C46289D249BC007AB
:1016B0001E9800D000200E49086030781A2802D108
:1016C00030BF1A2000E000BF2B992C91279E269254
:1016D000FEF774FD1B203070FFF752FA00F04AF855
:1016E00000F04CF8042100F04DF8182100F04AF801
:1016F00000800040100100201A37FF1F4537FF1FF0
:101700003237FF1F2C37FF1F1F35FF1F1E35FF1FEE
:101710001235FF1F443BFF1F5435FF1F4635FF1F87
:101720003535FF1F2035FF1FE737FF1FBB35FF1F74
:10173000F137FF1F4538FF1F4038FF1F2438FF1FB8
:10174000EC3AFF1FDB3DFF1F403AFF1FA73DFF1F85
:10175000943DFF1FD43CFF1FE43BFF1FD03BFF1F06
:10176000574C543180B500AFFEF7C8FC80B500AFD0
:1017700001F0EAFB80B500AFFFF7F8FF80B500AFDE
:10178000FFF7F4FF80B500AFFFF7F0FF80B500AFC3
:10179000FEE780B500AF80BDF0B503AFADB0044645
:1017A0003820205C2146673101281CD803AA019209
:1017B000132010701CA80090442602912146324646
:1017C00001F058FE07AD28460099019A00F008FA8A
:1017D00020462946324601F04DFE4435204644302D
:1017E0004ECD4EC002990020606508781A2804D0BA
:1017F0001A2008704878401C48702DB0F0BDD4D431
:10180000F0B503AF82B001920091DBB2BC68022B4D
:1018100003D89B00114DE95800E00F49E4B2082CB1
:1018200003D8A4000F4D2C5900E00D4C01250E4E9D
:101830000E4B0246203268C2C5621A230E260A22C7
:10184000009D0560019D45600546083556C508495F
:101850008161C36102B0F0BDD337FF1F5841FF1F44
:10186000D33AFF1F6441FF1F733BFF1F723BFF1FF3
:10187000583BFF1FD0B502AF04466734C9B2C0461B
:101880007944097949008F440106104420790028E1
:101890003AD0401E39E02079401CC1B2CD224A43E3
:1018A000D10A0A224A43801A2FE0E378002A17D08F
:1018B000042B34D2C11822795C23CA54002121712F
:1018C000E278521CE270D2B2042A1FD3E170217870
:1018D000826DC06D82421DD105291AD005201CE001
:1018E000042B1CD2C0182179582281540020207169
:1018F000E178491CE170C9B2042907D3E07020786F
:10190000032806D0032008E0092020716078401CDD
:101910006070D0BD0429FCD004202070F6E70421BB
:101920001846FFF72FFFD4D4B0B502AF02460078B7
:101930000C780023A0427DD1401E0124252800D927
:1019400082E0800001A52D582046AF46E519FF1F13
:10195000171AFF1FE519FF1FE519FF1FE519FF1FE4
:10196000E519FF1FE519FF1FE519FF1FF119FF1FFB
:10197000F119FF1FE519FF1FF119FF1F431AFF1F80
:10198000371AFF1F371AFF1FF119FF1FF119FF1F29
:10199000E519FF1FE519FF1FE519FF1FE519FF1FD7
:1019A000E519FF1FE519FF1F391AFF1FE519FF1F72
:1019B000011AFF1F011AFF1FE519FF1FE519FF1F7D
:1019C000E519FF1FE519FF1FE519FF1FE519FF1FA7
:1019D000E519FF1FE519FF1F371AFF1F371AFF1FF1
:1019E000431AFF1F48685168091A48424841B0BD70
:1019F00048685468844218461DD188689168F3E7A6
:101A0000486854688442184615D108320831104697
:101A100000F01CF8B0BD4868556885420AD11589A8
:101A200008898542184606D1022D204603D14889EF
:101A30005189D9E71846B0BD4868546884421846B1
:101A4000F9D148785178CFE72046B0BDB0B502AFA4
:101A5000024604780878002384420FD10120C04652
:101A60007C4424796400A744010B0E134878547811
:101A7000844218460CD18878917806E01846B0BDAB
:101A80004878517801E048685168091A484248414D
:101A9000B0BDD4D4F0B503AFAFB038210490405CF2
:101AA000022872D305A902910C200870012007902A
:101AB000039006901EAC442201922046049D2946C4
:101AC00001F0D8FC09AE30462146029A00F088F8B1
:101AD00028463146019A01F0CDFC4436443528466B
:101AE0001ECE1EC02A492846FFF71EFF00284CD0F4
:101AF00005AE039931720D20307006911EA8019039
:101B000044220292049901F0B5FC09AC20460199E7
:101B1000324600F065F8049E30462146029C22467B
:101B200001F0A8FC05A901910E2008700398069009
:101B30001EA800903146224601F09CFC09AC2046CC
:101B40000099019A00F04CF830462146029A01F0C3
:101B500091FC05A901911220087003980890079044
:101B600006901EAC20463146029A01F083FC09AE75
:101B700030462146019A00F033F804983146029A23
:101B800001F078FC44360FCE0FC52FB0F0BDC04633
:101B90006436FF1FF0B503AF81B0002B13D0E029EE
:101BA0000D4600D8E0254C1CE02C0CD28D4213D001
:101BB00000269657002E00DA3F26521C46545B1E24
:101BC0002146F0D102E00C46E02902D20021015565
:101BD000641C204601B0F0BDE0212846FFF7D2FD8D
:101BE000F0B503AFA3B00D4604461178032901D820
:101BF0001E2100E0091FCEB2A11C149121462C31F8
:101C0000159117944C34A81C169522357600C046C1
:101C10007E44B6887600B7442B00BA0230025302E5
:101C200081015603AE037302F703C701D9036101B3
:101C3000B0018703EA005002DD000303C8038704F4
:101C400041036E034504A9040C02E001F204CA003A
:101C5000BF04C6041904D8022B040101CD00A6005C
:101C6000C2005300D80453049B011503A10444008F
:101C700016990888032801D000F00DFD107A5668E7
:101C800000224A7208724E600124E043401C088022
:101C90004422179D284601F0EDFBAE64159900F033
:101CA00002FD169D2888032801D000F0CEFC4422B6
:101CB0001798294601F0DEFB0020159E00F007FD75
:101CC00005461699087B032801D000F0AFFC487B3D
:101CD000C00701D100F0AAFC536808699842179820
:101CE00000D08FE311930E460C360C46117A1291F8
:101CF0000021109121732A88698809048D18A3682E
:101D0000E1791391A1792488129A002A01D100F077
:101D100061FD0F93129116962946ABB26E4E9B1938
:101D20005E425E412246631F5C1EA341334301D1E4
:101D300000F018FE149B1980179802800F9A826099
:101D4000139AC2710A4612998171110C59800C3094
:101D5000169D0ECD0EC01ECD1EC00ECD0EC01ECDCA
:101D60001EC000F0BAFC1699087B032801D000F0D1
:101D70005DFC54680869A04201D000F05DFC487B1E
:101D8000002801D000F052FC002008734422179D67
:101D9000284601F06FFBAC641F2000F09CFF5468E4
:101DA00093681AA8202101701B94012109E0526850
:101DB0000123F3E3546893681AA81E2101701B9451
:101DC00000210091019017981699224601F08CF895
:101DD00000F039FCA87D012800D90FE3506816995E
:101DE000CA6A8242179800D00CE300F0EBFCA97D90
:101DF000072900D002E350681699CB6A83421798EE
:101E000000D0FFE2EC7C9368D2684A63CB62AC7589
:101E1000442201F02FFB0E2000F05DFF16990B7B92
:101E2000042B01D000F002FC4B7BDB0701D100F05A
:101E3000FDFB034650680A69824201D000F0FCFBBA
:101E400007900A460C32C8690290887E1390487E3B
:101E500004900C7E0020039008730E4618465B88A1
:101E60000179090458180A90304641300990A87F3A
:101E70000C90687F0D90287F0E90E87E0F90A87ED2
:101E8000089031463931A87D1290336B1193756BF0
:101E9000B0680590F07906907388109330880B95A0
:101EA0006400C0467C44A4886400A7440300C205C3
:101EB0007705A1050123139E1E40049B5B00C046CD
:101EC0007B449B885B009F44A8060300A406A606EB
:101ED0000F9600F0A1FEC0460200FFFFA97D052974
:101EE00000D08BE22E460A36516833688B42179831
:101EF00001D000F02FFCA97C137A8B42169901D8EF
:101F000000F026FCA87EC2B250425041AC7FA342F2
:101F100001D200F0CFFD002200F0CDFD0020169987
:101F2000085E022800DD81E348685468A04200D0C2
:101F300082E3487A032800D078E3042048724422E0
:101F4000179D284601F096FAAC64052000F0C3FE08
:101F50001699087B052800D068E354680869A042F8
:101F600000D069E3002008734422179D284601F041
:101F700081FAAC64232000F0AEFEA97D062900D0D2
:101F80003CE254681699C86AA04200D054E30E6B34
:101F90000720A8754422179D284601F06BFAAC640F
:101FA000EE640C2000F097FEA97D042900D025E204
:101FB00054681699C86AA04200D03DE30E6B107AAF
:101FC0000522AA75E8744422179D284601F052FAAA
:101FD000AC64EE640A2000F07EFE1699087B0128AE
:101FE00000D023E356684869B042179C00D0D0E285
:101FF000088C012800D0C6E21496A988EA88120449
:102000005118FF2212040A40012673049A4201D09B
:1020100000F08CFDA87D0128169901D800F0E6FD9E
:10202000002008734422204601F024FA1498A0648A
:1020300044E21699087B012800D0F7E25668486907
:10204000B042179C00D0A4E2088C022800D09AE28B
:10205000A879002800D196E2012801D000F080FD87
:10206000032008844E6101200873A8714422204691
:1020700001F000FAA66400F02DFE00201699085E1B
:10208000022800DDD2E24B7A012B00D0CEE24B6871
:102090005468A34200D0CFE20122D243521C9042A6
:1020A00000D1C3E2022048724422179D284601F065
:1020B000E1F9AC64032000F00EFE1798169981E355
:1020C00000201699085E022800DDAFE24B685568D3
:1020D000AB42179C00D05CE24B7A0122D243521CE7
:1020E000904200D08EE3002B00D096E3032048728C
:1020F0004422204601F0BEF9A564042000F0EBFD67
:1021000000241699085F022800DD8FE24B7A062B27
:1021100000D08BE24B6852689342179E00D01CE3BC
:102120000B7A14924A88CB71488005230B808A80F1
:102130000122D243521C801A421E904188710846E7
:10214000354613941CC81CC530460D300C460D3165
:102150001F2201F073F830462D3021462D310B221D
:1021600001F06CF8304639302146393103252A46D2
:1021700001F064F81398307315990D7308700820F6
:1021800008761498B064E06B216C00F0CCFC1699D2
:102190000888032800D088E2107BD588139593889F
:1021A0001493966801224A7208724E604D800B802B
:1021B0004422179D284601F05DF913986080149819
:1021C0002080AE64022000F086FD1699087B001F77
:1021D000431E98414B7B0343D80700D026E2546846
:1021E0000869A04200D027E2A87D022800D317E3A7
:1021F00048690A6B824200D0A7E28E69C8691490D0
:102200000C614120800088814422179D284601F0FE
:1022100031F9AC64EE64149828651B2000F05BFD76
:10222000E97E002900D189E2A87DFE210140022932
:102230001798169904D052680B6B934200D1C1E2F3
:1022400044227EE2169D2888062800D036E203202C
:10225000149028802846179E31461CC81CC1304661
:102260000D3029460D311F2200F0E8FF28462C30A2
:10227000159E31461CC81CC1179C20463930294682
:102280003931149A00F0DAFF0020207302203073F5
:10229000E86B296CE0632164252018E21699087B1D
:1022A000022800D0C2E154680869A04200D0C3E10E
:1022B000002008734422179D284601F0DBF8AC6427
:1022C000132000F008FD00201699085E022800DDAA
:1022D000ACE148685468A04200D0ADE1487A0428D7
:1022E00000D0A3E1052048724422179D284601F042
:1022F000C1F8AC648FE21699087B022800D095E102
:10230000487BC00700D191E154680869A04200D021
:1023100092E1002008734422179D284601F0AAF894
:10232000AC64122000F0D7FCA97D062966D156685E
:102330001699C86AB042179864D14A8893B2F94A8C
:102340009B185A425A410B885C1F631E9C411443E0
:1023500052D1CA79012A00D0FAE134460646086B08
:1023600014900720A8754422304601F083F8B46425
:102370001498F06415E600201699085E022800DD26
:1023800054E148685468A04200D055E1487A0528D5
:1023900000D04BE1062048724422179D284601F0E8
:1023A00069F8AC64072000F096FCA87D012800D9EC
:1023B0001EE194681699086BA04200D0C5E1087B25
:1023C000002800D147E2442217980DE1A97D052994
:1023D00014D156681699C86AB042179812D14A8823
:1023E00093B2D04A9B185A425A410B885C1F631E15
:1023F0009C41144300D116E244226CE14422179818
:10240000169915E1442219E116990888052800D08B
:102410005FE1087B0028179800D0E4E0AB7D032B38
:1024200000D095E106465468906814900863042033
:10243000A875A87ACC62A8744422304601F01AF834
:10244000B4641498F064092000F045FCA87D0128CC
:1024500000D9CDE0D06816990B6B8342179D00D050
:102460007EE10B7B002B00D103E244222846BBE037
:102470001699087B001F431E98414B7B0343D807E6
:1024800000D0D3E054680869A04200D0D4E0002016
:1024900008734422179D284600F0ECFFAC641D2011
:1024A00000F019FC5668A87D012800D817E14422E5
:1024B000179C2046169900F0DDFFA664432058E1E2
:1024C0001699087B052800D0B0E050680A6982425E
:1024D00000D0B1E00D462C3508460D301490062092
:1024E00008801391179C2246139949C949C2204676
:1024F0000D301F22149900F0A1FE159E30460ECD1E
:102500000EC020463930169D29463931032200F08D
:1025100095FE002020730220307324203076E86B73
:10252000296CE06321648EE01699087B801E431EAF
:1025300098414B7B0343D80778D154680869A0427F
:102540007AD14E698120400088814422179D284617
:1025500000F090FFAC64EE641120BCE30024169DF3
:10256000285F022800DDCBE00120CAE01699087B35
:1025700001285BD1D6684869B042179C09D1088C04
:10258000002800D19BE14422204600F073FFA6649E
:10259000D3E24422204651E052680023179816994E
:1025A00000F064FC4FE01699087B01283ED1546886
:1025B0004869A04240D1002008734422179D284654
:1025C00000F058FFAC64192085E3A87D01280FD8DE
:1025D00093681699086B9842179800D0F5E00C7B29
:1025E000002C00D1B1E1442200F044FF4E4828E025
:1025F00044221798169900F03DFF4C4821E01699A7
:10260000087B012812D154684869A04214D1088C73
:10261000401E022800D317E1002008734422179DB2
:10262000284600F027FFAC6441480AE0442217988E
:1026300000F020FF3F4804E04422179800F01AFF02
:102640003D481599088323B0F0BD06202880284610
:10265000179E31461CC81CC130460D3029460D312D
:102660001F2200F0EBFD28462C30159E31461CC879
:102670001CC1179C2046393029463931032200F00D
:10268000DDFD0020207302203073E86B296CE063CD
:10269000216424201BE04422179800F0EBFE012067
:1026A0001599487626240C76CDE74422179800F039
:1026B000E1FE01201599487626200DE34422179863
:1026C000294600F0D7FE0820159E70762620307629
:1026D000B9E74422179800F0CDFE2620B1E79068B4
:1026E00016990A6B8242179C3DD10A7B002A00D1C1
:1026F000D3E04422204600F0BDFEA664632038E00B
:10270000C01E80B2179EC0467844007940008744BE
:102710000132570144223046294600F0ABFE15989D
:10272000047690E70200FFFF260300002602000067
:10273000180A000026080000260600004422179808
:10274000169900F097FE0020C5E2442217983DE05C
:1027500044226DE74422169970E7442230466DE723
:102760004422284632E04422204600F083FEA6643C
:102770008320C00065E70320139028802846314657
:1027800014941CC81CC130460D3029460D311F223F
:1027900000F054FD28462C3015991CC81CC1304649
:1027A000393029463931139A00F048FD14983073B6
:1027B0000220159908730F200876E86B296CB2E1A6
:1027C0003046294600F006FB3DE7442200F052FE69
:1027D000F54836E72246149C258002808360139AD0
:1027E000C2718171290C618001460C311CCE1CC163
:1027F0003CCE3CC11CCE1CC13CCE3CC11199816475
:10280000212068E2022B08D105204872442220468C
:1028100000F030FEA56406205DE24422204607E772
:1028200044221798E7E60C6BC8790022AA740028A6
:1028300000D184E10620A8754422179C204600F0B0
:1028400019FEA6640B2046E24422179D284600F09C
:1028500011FEAC6471E156680E614C610220888102
:102860004422179D284600F005FEAE64EC6410205B
:1028700031E2136814935468966804228A810E61C9
:102880000A46143219C24422284600F0F3FDAE6411
:102890001498E8642C651A201DE24B6B00220A8410
:1028A0004E618861CB6101200873C043401C0882DF
:1028B0004422204600F0DEFDA66414200BE2AB7D2E
:1028C000022B00D346E1169988690C6B844200D034
:1028D0009AE1C8694C6B844200D095E1108914904C
:1028E0005068129080B21090C11E012004291390EC
:1028F000014600D30021D47A0E94907A1190149A54
:102900001446139804400C43611E204688410D90E4
:1029100091B2090A022903D1697F002900D10FE28F
:10292000002C00D1DAE1002B00D0FCE1297F002946
:1029300000D1F8E10020169908734422179C204624
:1029400000F098FDA664A32013E7054654680C61C7
:102950004B61052008734422284600F08BFDAC64CF
:102960002220B8E1179A0C32169838C838C278C8B5
:1029700078C238C838C278C878C2080C149A508017
:1029800011800520179A10801398D07110989071BB
:102990001F20159908761198906454E6129B012B1C
:1029A00000D9E6E01AAB70CA70C370CA70C370CAAF
:1029B00070C38A7819AB9A70099DAA7818ACA27076
:1029C0000A78497809028918198029786A781202E8
:1029D000511821801199029A8A4201D10021129145
:1029E000179E149A0A99069C059D089B139332E141
:1029F0001AAB70CA70C370CA70C370CA70C38A78C9
:102A000019AB9A70099DAA7818ACA2700A78497817
:102A100009028918198029786A78120251182180D0
:102A200012990229039A00D30A4608991391129227
:102A30000CE1E64B109EF31A5C425C41431F5D1EA5
:102A4000AB41234300D1B1E0149C0A9B6380179DE6
:102A50006E8028800598A8600698E8711B0C237189
:102A60002B4628460C3370CA70C370CA70C370CA34
:102A700070C3119A064602630B9A4263159C129822
:102A800020733046393003252A4600F0D7FB0C98D6
:102A900020750D98E0740E98A0740F9860740898D3
:102AA00020744136304609992A4600F0C7FB26209B
:102AB0002083C8E501220243012A0ED10320A87514
:102AC000AB72442217981D4600F0D4FC601B00D264
:102AD0000020159948760D20FEE008463930149004
:102AE0000620088008461396179E35461CC81CC54C
:102AF00030460D3016990D311F2200F09FFB159CBA
:102B00002046139D0ECD0EC0304639300322149955
:102B100000F094FB002030730220207324202076E4
:102B20001699C86B096CF06331648CE54422204629
:102B3000169900F09FFC1498A064A54881E5072031
:102B4000A8754422179D284600F094FCAE64EC64FE
:102B5000FFF727FA00201699087344222046AAE4BA
:102B6000012008844E6108730220A8714422204687
:102B7000E7E51AAB70CA70C370CA70C370CA70C37D
:102B80008A7819AB9A70099DAA7818ACA2700A7855
:102B9000497809028918198029786A78120251182F
:102BA00021800899139151E0260400001AAB70CAE5
:102BB00070C370CA70C370CA70C38A7819AB9A7038
:102BC0000998827818ACA2700A78497809028918A5
:102BD0001980017842781202511821800520089945
:102BE0001391049C179E149A0A9934E08869CA6963
:102BF0000B6B4C6B434054401C4360D00020087367
:102C00004422179C204694E7002008734422179C16
:102C1000BAE40E9600E00D96089E13961AAB70CAA1
:102C200070C370CA70C370CA70C38A7819AB9A70C7
:102C3000099DAA7818ACA2700A7849780902891807
:102C4000198029786A78120251182180179E149AE7
:102C50000A99069C059D5180109B73803080B56059
:102C6000F471090C117131460C311AAA38CA38C1F5
:102C700038CA38C138CA38C1119931630B997163A8
:102C8000159C129820733046393019A903252A461D
:102C900000F0D4FA0C9820750D98E0740E98A0748A
:102CA0000F986074139820743046413018A92A4652
:102CB00000F0C4FA1C2020760798B064C3E4032017
:102CC0000884149D4D610E734422179C204600F029
:102CD000D1FBA564162015990876B4E41298010C6E
:102CE000149A1304C8180C9000200F90109B9900A0
:102CF00002A46158139C0B94119A8F465F2DFF1FFD
:102D00001D2DFF1F5F2DFF1FC92DFF1FC92DFF1F89
:102D1000C92DFF1FC92DFF1F572DFF1F00200B902E
:102D200001230F941BE01298010C14980304C81897
:102D30000C9000200B90139C0F94119A109B0EE0A6
:102D40000020169908734422179C204600F092FB3D
:102D5000A664E3200DE5002007230F900B90169842
:102D6000139646610C99418203820473561E714288
:102D700071410F98002802D10B98014300E0022115
:102D8000179C022A139E129800D11146002916D0D2
:102D9000FF23149A9A430D9B9A1828800E9BEB717F
:102DA000A9710346022016990884180C6880AA802D
:102DB0004422204600F05EFBA66415208BE703202A
:102DC00016990884FFF752F9FEDEC046FEFF0000A8
:102DD00018080000F0B503AF83B004460D462C354B
:102DE000287B012801D8062000E0801EC0B20228FE
:102DF00006D200250D734422204600F03BFB2EE056
:102E00000023800002A21258019318469746C0463C
:102E10002F2EFF1F672EFF1F2D2EFF1F2D2EFF1F92
:102E20002D2EFF1F2D2EFF1F2F2EFF1F287A03226E
:102E30002A73287020460A46029458CA58C0029C39
:102E400020460D300D311F2200F0F8F920462C30BD
:102E50000ECD0EC00ECD0EC0019820730F2544205C
:102E6000255403B0F0BD2878E1E7D4D4F0B503AF22
:102E700081B0064604464434087B012812D1154629
:102E80004869904214D1088C032817D10020087398
:102E900044223046009300F0EDFA0098002816D046
:102EA000172017E04422304600F0E4FA0B480BE00C
:102EB0004422304600F0DEFA094805E0442230465C
:102EC00000F0D8FAB5640748208001B0F0BD0B20AF
:102ED00060701820B5642070F7E7C046260800002F
:102EE0002606000018080000B0B502AF38240D5DBA
:102EF00004464434012D0AD80D6B9D420CD10B7B46
:102F0000002B0FD0442200F0B5FA0E4808E044220E
:102F100000F0B0FA094803E0442200F0ABFA084898
:102F20002080B0BDFD68BB680A614B7303220A7341
:102F3000442200F09FFA0FCD0FC4B0BD260200005E
:102F4000260400002603000080B500AFFEE7F0B5C0
:102F500003AF102933D3444203221440031998428B
:102F600019D2651E002C0CD000260670012C01D150
:102F7000401C06E04670022C01D1801C01E08670E6
:102F8000C01C032D07D30025C570857045700570E2
:102F9000001D9842F8D1091B084690431818834237
:102FA0000CD2002410C3834208D210C3834205D23E
:102FB00010C3834202D210C38342F3D3114042189C
:102FC00090421AD203230B40491E002B0BD0002441
:102FD0000470012B03D1401C032906D20DE044707C
:102FE000022B0BD1801C032907D30021C1708170F3
:102FF00041700170001D9042F8D1F0BD8470C01C7A
:103000000329F2D2F9E7B0B502AF042913D30C1F9C
:10301000E2431207920F14D00025024620C2230774
:103020009B0F23460FD045600C222240042A05D175
:103030000839083005E002460B460FE085600C3980
:103040000C300B4602460C2C08D300201060506058
:103050009060D0601032103B032BF7D8D01882421A
:103060001AD203241C40591E002C0BD000231370CD
:10307000012C03D1521C032906D20DE05370022CFF
:103080000BD1921C032907D30021D170917051708C
:103090001170121D8242F8D1B0BD9370D21C032969
:1030A000F2D2F9E780B500AF00F001F880BDF0B5CD
:1030B00003AF83B00246884203D20020114603B01A
:1030C000F0BD100C002610238142344630D9029402
:1030D000144631D9230A0820994232D9334600D800
:1030E000034601932309042099422ED933462FD950
:1030F000A0080225814230D9304600D828460093E6
:1031000064080125A1422C4600D93446029E019B49
:103110009E19009BF318181803199D400C469C40FB
:10312000161B8E421DD232462846114603B0F0BD12
:103130001C4602941446CDD80446230A082099421E
:10314000CCD81C463346CBD9CBE71C463346CFD828
:103150000346A00802258142CED804463046CDD988
:10316000CDE7002C03D429462846324614E05B1EE6
:103170001F2200931A40012090406408321BD3178D
:1031800001930290019B9843002A00DA32462843BB
:103190008A420299009B91D3491E002B0BD0032633
:1031A0001E400AD055002A1B521C00D41546012E81
:1031B00006D15A1E13E0154613E015461A460EE0D6
:1031C0006D002A1B521C00D41546022E01D19A1EF6
:1031D00005E06D002A1B521C00D41546DA1E042B94
:1031E0000AD21F2213402A46DA40294008431146DA
:1031F00003B0F0BD121FF4D06D002E1B761C0CD551
:103200006D002E1B761C0DD56D002E1B761C0ED569
:103210006D002E1B761CEDD40EE035466D002E1B86
:10322000761CF1D435466D002E1B761CF0D4354645
:103230006D002E1B761CDDD43546DBE780B500AF74
:1032400000F001F880BDF0B503AF8DB0102A16D3A1
:10325000164643420322049213400693C518A8421F
:103260002CD2069A531E002A02460C4618D00A7821
:103270000270069C012C08D14C1C421C10E0034635
:103280009E18B34200D2CAE0EBE04A784270022CAA
:1032900002D18C1C821C03E08A788270CC1CC21C78
:1032A000032B0BD32378137063785370A378937038
:1032B000E378D370241D121DAA42F3D1069C361B5D
:1032C0000396049A9643AB190C19059414404BD0FD
:1032D0000096029000220C920CA8001926460424A5
:1032E0000196A41BE60703D0059A1278027001220A
:1032F000A40702D5059CA45A845201980646C20030
:103300000C9C281D9842089243D270420E185042DD
:10331000099418240440079402980699099DD54001
:1033200006967218099256683246079CA2402A43B4
:1033300042504218144608349C422FD2089CE64062
:10334000099CA5680995079CA54035435560083040
:1033500045182A1D069E08369A42089ADED3701830
:103360000690019A099C1FE09D4250D2059A11686F
:1033700002C59D424BD2516802C59D4247D2916819
:1033800002C59D4243D2D16802C510329D42EED3A0
:103390003DE005983246801B069005E00998001D27
:1033A0000690151D3446019A0BA900260E700AA836
:1033B0000670012A30463246019608D006984179B7
:1033C00000790BAA10700A02022101910AA909943E
:1033D00007900598C0070AD00698001D019E805DE1
:1033E00008700BA8007807900AA8007806040898CF
:1033F000414206911821069C21403243079E3243E8
:103400008A400999C140114329600298009E039A9D
:1034100004990A40059989199E18B34221D20324C0
:103420001440521E002C0ED00D781D70012C04D1BA
:10343000491C5B1C032A08D213E04D785D70022CF6
:1034400011D1891C9B1C032A0BD30A781A704A7865
:103450005A708A789A70CA78DA70091D1B1DB342B7
:10346000F3D10DB0F0BD8C789C70C91CDB1C032A15
:10347000EBD2F6E7F0B503AF81B0042A28D3131FCF
:10348000DC432407A40F14D014460D4604C9064695
:1034900004C01A07920F1A460BD029466A683046B4
:1034A00072600C221A40042A16D12246083A0831CA
:1034B00008300C2B0CD30B6803604B6843608B689F
:1034C0008360CB68C36010311030103A032AF2D801
:1034D000FFF7B9FE01B0F0BD8A68826022460C3A5F
:1034E0000C310C300C2BE6D2F2E780B500AFFEE7D2
:1034F000504F574552534C454550204E4F5743501F
:10350000552057494C4C2045584543555445205764
:103510004649424F5448203D20454E5445523C3E7A
:103520004155544F2D534C45455020333020534581
:10353000434F4E44534C4F434B204245464F524518
:1035400020534C454550424F5448203D204445545B
:1035500041494C534241434B4341474557414954EC
:1035600043414C4C524556494557205452414E53C5
:10357000414354494F4E424954434F494E20C2B7EC
:103580002031204F4620355343524F4C4C20455656
:10359000455259204649454C445249474854203DDC
:1035A000204E455854414D4F554E54302E31302009
:1035B0004254435345435552495459534554544931
:1035C0004E4753415050524F56454441434F555337
:1035D00054494300140000000100000000000000F6
:1035E00000000000424F5448203D20454E544552B3
:1035F0002050494E52455455524E454420544F2078
:10360000484F535411000000080000000A00000059
:10361000150000004E4554574F524B3A2042495432
:10362000434F494E564552494659204F4E20444536
:1036300056494345524551554553542052454A45F4
:103640004354454416000000010000000000000043
:10365000000000000000000000000000000000006A
:10366000000000000900000001000000010000004F
:103670000000000015000000010000000000000034
:103680000000000012000000060000000900000019
:1036900007000000424F5448203D20545259204119
:1036A0004741494E12000000100000000F000000CA
:1036B000180000000C0000001000000010000000C6
:1036C00012000000524543495049454E544243318F
:1036D000512E2E2E37583246454520302E30303070
:1036E000313220425443415050524F56455349477E
:1036F0004E2054484953205452414E53414354495B
:103700004F4E50524956415445204B455920535431
:1037100041595320494E5349444550524553532033
:10372000424F544820425554544F4E5352454A45F7
:10373000435443414E43454C20544849532052453D
:1037400051554553544E4F20505249564154452DE2
:103750004B4559204F5045524154494F4E434F4ECF
:1037600054524F4C2043454E5445524C4F434B20EE
:10377000444556494345534C454550434C4F5345AA
:10378000444953504C41594252494748544E45537D
:1037900053204C4F574252494748544E45535320AB
:1037A0004D454449554D4252494748544E4553535F
:1037B00020484947485F20205F20205F20205F2A63
:1037C00020205F20205F20205F2A20202A20205FE9
:1037D00020205F2A20202A20202A20205F434841E1
:1037E0004E47452050494E50415353504852415343
:1037F000454241434B20544F2044415348424F419E
:10380000524444415348424F415244424954434F29
:10381000494E4F50454E20494E5354414C4C45441F
:1038200020415050534543555249545920C2B72066
:10383000444953504C415920C2B720504F5745522C
:1038400041424F55544649524D5741524520414EF1
:10385000442044455649434520494E464F5245432E
:103860004F5645525920574F5244203031202F2077
:1038700032345245434F5645525920574F524420F7
:103880003032202F2032345245434F564552592072
:10389000574F5244203033202F2032345245434F6B
:1038A0005645525920574F5244203034202F203251
:1038B000345245434F5645525920574F52442030B9
:1038C00035202F2032345245434F56455259205708
:1038D0004F5244203036202F2032345245434F5629
:1038E00045525920574F5244203037202F20323430
:1038F0005245434F5645525920574F524420303875
:10390000202F2032345245434F5645525920574FAD
:103910005244203039202F2032345245434F5645EF
:10392000525920574F5244203130202F20323452E8
:1039300045434F5645525920574F5244203131206C
:103940002F2032345245434F5645525920574F523B
:1039500044203132202F2032345245434F564552B5
:103960005920574F5244203133202F2032345245B2
:10397000434F5645525920574F5244203134202F3F
:103980002032345245434F5645525920574F5244E6
:10399000203135202F2032345245434F564552595D
:1039A00020574F5244203136202F20323452454385
:1039B0004F5645525920574F5244203137202F201F
:1039C00032345245434F5645525920574F524420A6
:1039D0003138202F2032345245434F56455259201A
:1039E000574F5244203139202F2032345245434F13
:1039F0005645525920574F5244203230202F203202
:103A0000345245434F5645525920574F5244203265
:103A100031202F2032345245434F564552592057BA
:103A20004F5244203232202F2032345245434F56D9
:103A300045525920574F5244203233202F203234E0
:103A40005245434F5645525920574F524420323425
:103A5000202F20323453454C454354204449474994
:103A600054203053454C4543542044494749542041
:103A70003153454C4543542044494749542032531F
:103A8000454C454354204449474954203353454C01
:103A9000454354204449474954203453454C4543F9
:103AA00054204449474954203553454C45435420FC
:103AB0004449474954203653454C454354204449D2
:103AC000474954203753454C4543542044494749BE
:103AD00054203853454C45435420444947495420C9
:103AE000394341424C45434143545553E13AFF1F4A
:103AF00005000000E63AFF1F060000005835FF1FD2
:103B0000040000006035FF1F04000000424C414EDD
:103B10004B4554424C415354424C455353424C49FB
:103B20004E4400000C3BFF1F07000000133BFF1F2B
:103B300005000000183BFF1F050000001D3BFF1F94
:103B4000050000004C454654202F20524947485458
:103B500020544F204D4F56454C454654202F20525F
:103B60004947485420C2B720424F544820454E543C
:103B700045522D2B54574F2D425554544F4E2057DC
:103B8000414C4C4554204F534C454654202F205215
:103B900049474854203D204D4F5645424F544820F8
:103BA000425554544F4E53203D20454E544552509B
:103BB0005245535320424F544820544F20424547CA
:103BC000494E494E495449414C495A4154494F4E36
:103BD000534554205550204153204E4557204445CD
:103BE0005649434547454E4552415445204B45595A
:103BF00053204F4E20444556494345524553544F58
:103C000052452046524F4D204241434B5550454E60
:103C1000544552205245434F5645525920574F5212
:103C200044534352454154452050494E434F4E461C
:103C300049524D2050494E50494E204D49534D4117
:103C40005443485448452054574F20454E545249F8
:103C50004553204449464645524E4F2050494E2038
:103C60005741532053544F5245445245434F5645B4
:103C70005259204241434B5550323420574F524401
:103C8000532057494C4C20464F4C4C4F57575249A4
:103C90005445205448454D20444F574E204F4646EA
:103CA0004C494E45424F5448203D2053484F5720E1
:103CB000574F5244534C455454455241445649433E
:103CC00045414253555244444F43544F5241564F3D
:103CD00049440000B53CFF1F06000000BB3CFF1F2D
:103CE000060000005835FF1F04000000C13CFF1F04
:103CF00006000000A535FF1F06000000C73CFF1F9F
:103D000006000000CB35FF1F08000000CD3CFF1F60
:103D100005000000B53CFF1F06000000BB3CFF1F74
:103D2000060000005835FF1F04000000C13CFF1FC3
:103D300006000000A535FF1F06000000C73CFF1F5E
:103D400006000000CB35FF1F08000000CD3CFF1F20
:103D500005000000B53CFF1F06000000BB3CFF1F34
:103D6000060000005835FF1F04000000C13CFF1F83
:103D700006000000A535FF1F06000000C73CFF1F1E
:103D800006000000CB35FF1F08000000183BFF1F96
:103D900005000000575249544520494E20544849D7
:103DA00053204F524445524C454654202F205249EF
:103DB00047485420544F205245564945575645527E
:103DC00049465920574F52442023303356455249D3
:103DD000465920574F52442023323453454C4543D3
:103DE00054205748415420594F552057524F54455D
:103DF0004241434B555020434845434B204641499F
:103E00004C454457524F4E47205245434F5645521A
:103E10005920574F524452455649455720594F55FE
:103E20005220504150455220434F50594445564925
:103E3000434520495320524541445950494E204161
:103E40004E44204241434B55502056455249464925
:103E500045444B455920524F4F5420434F4D4D49F7
:103E600054544544424F5448203D204F50454E2025
:103E700044415348424F41524441505020524541E1
:103E80004459484F5354204D41592050524F504FA0
:103E900053452041205458424F5448203D204F5014
:103EA000454E2044454D4F205245564945574142C5
:103EB0004F55542044455649434557414C4C455471
:103EC000204F532044454D4F20322E30434F525403
:103ED00045582D4D20494E204649524D5645525386
:103EE00045424F5448203D204241434B494E464FA6
:103EF000524D4154494F4E464C4F57204558495317
:103F0000545320494E2050524F4455435453484F28
:103F10005254454E454420494E2054484953204C64
:103F20004553534F4E444556494345204C4F434B10
:103F3000454450524956415445204B45595320530E
:103F400045414C454450494E2052455155495245F2
:103F500044454E5445522050494E57524F4E4720EB
:103F600050494E4143434553532044454E494544EF
:103F7000415454454D5054204E4F542041434345E5
:103F8000505445445349474E494E472053454350AA
:103F90003235364B3150524956415445204B4559E4
:103FA000204E4F54204558504F5254454450485984
:103FB000534943414C20494E505554204C4F434B9C
:103FC00045445349474E415455524520524541447A
:103FD0005950524956415445204B4559205354415C
:103FE0005945442048455245424F5448203D2042BF
:103FF00041434B20544F20424954434F494E4E4F6A
:104000005448494E4720574153205349474E454451
:10401000484F535420524543454956455320414E3D
:10402000204552524F52444953504C415920414E21
:1040300044204350552041534C4545504641494C3E
:1040400020434C4F534544494E56414C494420442B
:104050004F4D41494E2053544154454E4F205349F2
:10406000474E4154555245204352454154454442E0
:104070004F5448203D2052455345542056494557FA
:104080005D38FF1F7238FF1F8738FF1F9C38FF1FE6
:10409000B138FF1FC638FF1FDB38FF1FF038FF1F86
:1040A0000539FF1F1A39FF1F2F39FF1F4439FF1F22
:1040B0005939FF1F6E39FF1F8339FF1F9839FF1FC2
:1040C000AD39FF1FC239FF1FD739FF1FEC39FF1F62
:1040D000013AFF1F163AFF1F2B3AFF1FB335FF1F90
:1040E0008037FF1FF034FF1F0800000007000000AA
:1040F000050000008737FF1F9537FF1FA637FF1FFA
:104100000E000000110000000F0000006B37FF1FC1
:10411000BB35FF1F7637FF1F6435FF1FA535FF1F17
:10412000C436FF1FE636FF1F7635FF1FAB35FF1F76
:10413000CD36FF1FED36FF1F8735FF1F1436FF1FDB
:10414000D736FF1F0237FF1F9935FF1F2436FF1F89
:104150002436FF1F1A37FF1FB537FF1FBF37FF1F5A
:10416000C937FF1F553AFF1F633AFF1F713AFF1F00
:104170007F3AFF1F8D3AFF1F9B3AFF1FA93AFF1F8F
:08418000B73AFF1FC53AFF1F0B
:040000051FFF00C118
:00000001FF
